:1000000012C0189518951895189518951895189563
:100010001895189518951895189518951895189578
:100020001895189518958FE58DBFC8E3E0E24E2E20
:1000300084E08EBFD4E0F4E05F2EA89584B7082E4C
:10004000877F84BF88E1992781BD91BDEEEFF3E002
:10005000A0E6B0E088278D933197E9F7662474B75E
:10006000777F74BF8EE181BD86E081BD8FEF87BB56
:100070008FEF81BB80E084BB83E886B980E487B9D9
:10008000379AE0E0F0E0ABE6B0E007D470E472BB92
:10009000C09AC198C29884EF91E00BD3C098C19ADE
:1000A00084EF91E006D3C198C29A84EF91E001D326
:1000B000C29884EF91E0FDD281B5886081BDA4E64D
:1000C000B0E00D911C91003050E0150709F017C009
:1000D00007B1007F006007B905D3A0E6B0E08D93BB
:1000E0009C93A0E6B0E08D919C91A2E6B0E08D9348
:1000F0009C938AE992E0A4E6B0E08D939C93999B4F
:100100000CC080E090E0A6E6B0E08D939C9380E088
:1001100090E0A9E7B0E08D939C93999921C0A6E661
:10012000B0E00D911C91003050E0150709F003C0BC
:10013000ABE6B0E0A7D281E090E0A6E6B0E08D9318
:100140009C93A9E7B0E09ED280E29EE4ADE7B0E0E8
:100150008D939C9385E890E0A5E7B0E08D939C9308
:100160009A9B0CC080E090E0A8E6B0E08D939C9351
:1001700080E090E0ABE7B0E08D939C939A9921C02A
:10018000A8E6B0E00D911C91003050E0150709F091
:1001900003C0ABE6B0E07DD281E090E0A8E6B0E03D
:1001A0008D939C93ABE7B0E06DD280E29EE4ADE727
:1001B000B0E08D939C9385E890E0A5E7B0E08D9347
:1001C0009C93ABE6B0E00D911C91003050E0150718
:1001D0000CF401C006C080E090E0ABE6B0E08D9387
:1001E0009C93ABE6B0E00D911C91073E53E01507E0
:1001F00014F009F001C006C087EE93E0ABE6B0E072
:100200008D939C93A2E6B0E00D911C91073E53E0C4
:10021000150710F009F001C006C087EE93E0A2E6D2
:10022000B0E08D939C93ABE6B0E00D911C91095129
:100230001040AFE7B0E00D931C93ABE6B0E00D913A
:100240001C91075E1F4FA1E8B0E00D931C939B9992
:1002500026C0A1E8B0E04D915C91A2E6B0E00D911E
:100260001C910417150714F009F001C005C0709126
:100270006A00706870936A00AFE7B0E04D915C91DE
:10028000A2E6B0E00D911C91041715070CF401C013
:1002900005C070916A007F7770936A0025C0AFE750
:1002A000B0E04D915C91A2E6B0E00D911C91041775
:1002B00015070CF401C005C070916A007068709356
:1002C0006A00A1E8B0E04D915C91A2E6B0E00D912A
:1002D0001C910417150714F009F001C005C07091B6
:1002E0006A007F7770936A00A5E7B0E00D911C91DA
:1002F000003050E0150709F005C0AFE6B0E0E2E6D7
:10030000F0E01FD2A5E7B0E00D911C91003050E065
:10031000150714F009F001C005C0AFE6B0E0EBE648
:10032000F0E014D2AFE6B0E0C0D2082F023010F0F7
:1003300009F001C007C0EFE6F0E001E0ADE6B0E093
:100340008BD205C0ADE6B0E0E6EBF8E0C6D1ADE695
:10035000B0E049D2A3E7B0E00D931C93E8E7F6E0E4
:10036000A3E7B0E08D919C91A2E3B0E0D4D1A5E7E2
:10037000B0E00D911C91003050E0150714F009F029
:1003800001C001C0979AAFE6B0E08FD2082F0330CA
:1003900010F009F001C002C079E772BBC09AC198A1
:1003A000C29885E090E085D1C098C198C298AFE628
:1003B000B0E07BD2082F023009F006C0EFE6F0E093
:1003C00001E0ADE6B0E048D2AFE6B0E06ED2082F73
:1003D000023010F009F001C008C082E0EFE6F0E062
:1003E00001E00A93ADE6B0E030D2AFE6B0E05DD216
:1003F000082F023008F005C0ADE6B0E0E6EBF8E00B
:100400006CD1ADE6B0E0EFD1A3E7B0E00D931C9363
:10041000E8E7F6E0A3E7B0E08D919C91A2E3B0E0BD
:100420007AD1AAE6B0E08C9187FB0EF001C0979AD2
:10043000AFE6B0E03AD2082F033010F009F001C067
:1004400002C070E572BBC098C19AC29885E090E086
:1004500030D1C098C198C298AFE6B0E026D2EA2F5A
:10046000FB2F32970FEFADE6B0E0F6D1ADE6B0E08E
:10047000BAD1A3E7B0E00D931C93E8E7F6E0A3E759
:10048000B0E08D919C91A2E3B0E045D1A4E6B0E04C
:100490000D911C91083552E0150780E014F009F029
:1004A00081E08F93ADE7B0E00D911C91003050E0FA
:1004B000150781E009F080E09F918923882309F4E2
:1004C00001C0979AA4E6B0E00D911C91083552E066
:1004D000150780E00CF481E08F93ADE7B0E00D915B
:1004E0001C91003050E0150780E014F009F081E025
:1004F0009F918923882309F401C0979AAFE6B0E061
:10050000D4D1082F033010F009F001C002C070E50B
:1005100072BBC098C198C29A85E090E0CAD0C098DA
:10052000C198C298AAE6B0E08C9187FB81E00EF0FA
:1005300080E08F93AAE6B0E08C9186FB81E00EF418
:1005400080E09F918923882309F40CC070916A0090
:10055000706470936A00C39A81E290E0A7E7B0E00C
:100560008D939C93AAE6B0E08C9187FB0EF412C0A9
:10057000AAE6B0E08C9186FB0EF006C084E690E01F
:10058000A7E7B0E08D939C9370916A007F7B709396
:100590006A00C398A7E7B0E00D911C91003050E0CD
:1005A000150714F009F001C004C0A7E7B0E071D04E
:1005B000C49AA7E7B0E00D911C91003050E01507F8
:1005C00009F001C0C498A5E7B0E00D911C9100307E
:1005D00050E0150714F009F001C003C0A5E7B0E032
:1005E00058D0A4E6B0E00D911C91003050E0150702
:1005F00014F009F001C003C0A4E6B0E04AD0A9E7B6
:10060000B0E00D911C91023450E0150714F009F090
:1006100001C003C0ABE6B0E035D0ABE7B0E00D9170
:100620001C91023450E0150714F009F001C003C01A
:10063000ABE6B0E02ED0ADE7B0E00D911C910030FC
:1006400050E0150714F009F001C003C0ADE7B0E0B9
:1006500020D0ADE7B0E00D911C91013050E01507BE
:1006600009F006C0E0E0F0E0ABE6B0E07BE704D1E3
:10067000A89525CDF894FFCF3F065B4F666D7D07AB
:100680007F6F8000ED91FC91EF5FFF4FFC93EE9345
:100690000895ED91FC91E150F040FC93EE930895A4
:1006A0003197F1F70895689462F80895E89462F834
:1006B0000895EF93FF93EE27E82BE92B31F0EAEF53
:1006C000F0E03197F1F70197D1F7FF91EF9108959D
:1006D000019111912191308108950DD00D9200204A
:1006E000E1F70895369A3699FECF369A3699FECFBD
:1006F00084B195B10895C89531960020089591E090
:1007000005C092E003C094E001C098E0F4DF0D92D0
:100710009A95E1F70895E80FF91FF1CF040F151F1F
:10072000261F371F0895000F111F221F331F089522
:1007300000951095209530950F5F1F4F2F4F3F4F1D
:100740000895019110810BC0C3DF0BC0019110818E
:1007500017FF05C03FEF2FEF04C0008111272227AC
:10076000332737FF03C0E4DF8DE28D93CF92DF9212
:10077000EF92AA24BB24CC24DD24EE2440E2EAE05C
:10078000FF2755E093E38081890F87FD9F7083FDEC
:10079000907F891B81935A95A9F7C5DFAA1CBB1CC2
:1007A000CC1CDD1CEE1C4A9551F7E894EFE0FF27C6
:1007B00082910CD0EB30E0F71EF068948A2D0AD0BD
:1007C00088278D93EF90DF90CF900895982F829592
:1007D00001D0892F8F70805D26F0803309F4089551
:1007E00068948D93089500271127222733271DD061
:1007F0008A3328F4803318F005D015D0F9CF0EF4E1
:1008000097CF089580538F93402F512F622F732FCE
:100810008ADF89DF83DF87DF8F919927080F191F10
:10082000291F391F08958D910895E894FCDF8032C7
:10083000E9F38B32D9F38930C9F38D3211F468941E
:10084000F2CF089588278D93089509919191992366
:1008500051F08A95D9F73197002329F081918D9332
:100860000A958823C9F7EECFE199FECFEEBBFFBB17
:100870003196089591E001C092E07B3751F47FB743
:10088000F894F2DF8D918DBBE29AE19A9A95C9F7BF
:100890007FBF7727089591E001C092E0E5DFE09AFD
:1008A0008DB38D939A95D1F708958FEF83959D9190
:0808B0009923E1F708953000DF
:00000001FF
